:040000000C944A0012
:100004000C9400000C9400000C9400000C9400006C
:100014000C9400000C9400000C9400000C9400005C
:100024000C9400000C9400000C9400000C9400004C
:100034000C9400000C9400000C9400000C9400003C
:100044000C9400000C9400000C9400000C9400002C
:100054001027E80364000A000100001000011000EA
:100064000100464F5243453A2020202020202020E2
:100074004B67000080C001002D4E414E00494E46A2
:100084000000020060017800010064017A000000B1
:10009400F894EE27ECBBF1E0FBBFEBBFE5BFF8E162
:1000A400F1BDE1BD8DE0A2E0BB27ED938A95E9F7B0
:1000B40080E094E0A0E6ED930197E9F7E6E8F0E04C
:1000C40085919591009761F0A591B5910590159052
:1000D400BF01F00105900D920197E1F7FB01F0CF0C
:1000E400EFE5EDBFE4E0EEBFC0E6D1E00C94D30051
:1000F400A998AFEF0E94E501AFEF0E94E501AFEFD1
:100104000E94E501AFEF2EC00E94700200E018E0EB
:100114000130E8E01E0710F000E018E0E02FEF7077
:100124003E2FA0E13A02302DF8010E941D022E2F2D
:10013400A998A3E00E94E501A22F0E94E501A32F44
:100144000E94E501A0E00E94E501A99A0E947502BF
:1001540024960895A998A2E00E94E501A52D0E9485
:10016400E501A0E90E94E501A99A08951A930A936A
:10017400A998A1E10E94E501AFEF0E94E501FE2FDD
:10018400E0E0FF93EF93AFEF0E94E501F0E0AF9161
:10019400BF91EA0FFB1F8F01A99AF80109911991E8
:1001A40008952497E0E0EBBBEABBE8BBEFEBE7BBC9
:1001B400E0E0E5BBEEEFE4BBE0E0E2BBEFEFE1BB88
:1001C400E0E0EBB9E8E1EAB9E6E8E0BDE0E0E0BD93
:1001D400E3E3E9B9E4E5EDB9E0E0EEB9A0E10E94BA
:1001E400B9010E948501E0E00E94ED01A6E6B0E0BD
:1001F4000E94A6017DDF88DFE0EC5E2EABDFE0E24B
:100204005E2EA8DFA8EEB3E00E940E02E894F1F897
:100214006894F0F830E0E0E00E946B0200E010E047
:1002240098993BC0A3DF8F01F8010E946102662701
:1002340077270E9418020E9466023F5F323369F5F5
:1002440030E00E946102E2E3F0E060E070E00E94CE
:1002540039028F01E0E00E946B020C7F202F512FA6
:10026400A22F1DD0A52F1BD0EBE00E94ED010E9410
:10027400F101EAE00E94ED010E94F101E9E00E942F
:10028400ED010E94F101E8E00E94ED010E94F101FC
:10029400E7E00E94ED010E94F101C2CFFFCFAA93D3
:1002A4005D9BFECFE881ECB90C94EB01AA93EBB310
:1002B400EF70AE2FE881E07FEA2BEBBB81E08A95FB
:1002C400F1F7DA9A82E08A95F1F7DA9882E08A9572
:1002D400F1F77FC0AA93A881E9DFE881E295E8837A
:1002E400A881E4DF81E18A95F1F773C0AA93E881DC
:1002F400F0E0E05AFE4FE081A981AE0FEBDF4980C8
:10030400788022960895A2E00E940102ACE0E2DF28
:10031400A1E00E940102E0E07E2E4E2E0895AA93F1
:10032400A881AA3011F0461448F0E0E0EA937394EF
:10033400A72DDCDFA881AA3009F44BC04394D89AD6
:10034400A881C8DFD89845C0BA93AA931A93E981C3
:10035400FA813196E983FA833197E4911E2FE030D4
:1003640019F0A12FDCDFF3CF188123960895AA9307
:10037400EAB3E06FEABBD29AD09AD19ADA98D898C5
:10038400D9986880E881E058E0936201E881E054FC
:10039400E0936301A4E1B0E00E940E020E94070210
:1003A4000E9407020E940702A0E280DF81E28A9590
:1003B400F1F7A8E28FDFA4E08DDFA5E88BDFA6E0EC
:1003C40089DFA1DF06C0AA93E881EFB9779BFECF4E
:1003D400EFB121960895EA93A0E00C947801D80136
:1003E400EAE0F0E00E945E02E05DAE2F0E9491011F
:1003F400D801EAE0F0E00E9426028F0108950E94ED
:100404006C01A3E0B0E00C940E02A0E30E9458013A
:1004140081E28A95F1F70895109639F08AEF90E019
:100424000197F1F7A8951197C9F70895EA0FFB1FF3
:10043400681F791F0895F695E795F695E795F69563
:10044400E795F695E79508950024112490E1AA0F05
:10045400BB1F001C111C0E1A1F0A18F40E0E1F1EBF
:1004640001C0A1609A9599F7FD01D00108953F93C9
:100474004F935F93002411244427552730E2AA0F99
:10048400BB1F881F991F001C111C441F551F0E1AE7
:100494001F0A460B570B28F40E0E1F1E461F571F2C
:1004A40001C0A1603A9559F7FD01BC01D001CA0110
:1004B4005F914F913F910895C7DFFD010895A88191
:1004C400B9818A819B810895E883F9836A837B8358
:1004D4000895E883E983EA83EB8308953A932A93A2
:1004E4001A930A9308953B812A81198108810895FA
:00000001FF
